:100000000C9472000C948B000C948B000C948B005D
:100010000C948B000C948B000C948B000C948B0034
:100020000C948B000C948B000C948B000C948B0024
:100030000C948B000C948B000C948B000C948B0014
:100040000C948B000C948B000C948B000C948B0004
:100050000C948B000C948B000C948B000C948B00F4
:100060000C948B000C948B000C948B000C948B00E4
:100070000C948B000C948B000C948B000C948B00D4
:100080000C948B000C948B000C948B000C948B00C4
:100090000C948B000C948B000C948B000C948B00B4
:1000A0000C948B000C948B000C948B000C948B00A4
:1000B0000C948B000C948B000C948B000C948B0094
:1000C0000C948B000C948B000C948B000C948B0084
:1000D0000C948B000C948B000C948B000C948B0074
:1000E0000C948B0011241FBECFEFD1E2DEBFCDBF39
:1000F00000E00CBF12E0A0E0B2E0E8EAF5E000E0CA
:100100000BBF02C007900D92A833B107D9F70E9428
:10011000C9010C94D2020C940000FC01DC010D908A
:100120000020E9F71197CD018E1B9F0B08952D9AA2
:1001300085E08A95F1F700002D980895CF93C82F98
:1001400080910201611509F444C08064809302012A
:100150002C986D9A9D9A6B9A80910101886080938A
:10016000010180910201877F809302017398A59815
:100170007598C7FF05C080910201886080930201D5
:10018000C6FD739AC5FDA59AC4FD759A0E94970095
:1001900080910201877F809302017398A5987598DA
:1001A000C3FF05C080910201886080930201C2FDF7
:1001B000739AC1FDA59AC0FD759A0E949700759A21
:1001C000A59A739A80910201886080930201CF9171
:1001D00008958F7BBBCF809102018F7B80930201BA
:1001E0002C9A6D989D986B9880910101877F8093E0
:1001F00001012D9A85E08A95F1F700008CB185FB0D
:10020000882780F98295807F9599806263998064C0
:100210009091000193FD80682D9895E09A95F1F7F3
:1002200000002D9A95E09A95F1F70000659981609C
:1002300095998260639984609091000193FD886034
:100240002D9808950E94EB0087FDFCCF85E18A95EB
:10025000F1F700000C94EB00CF93C82F0E9422010D
:1002600060E08C2FCF910C949E00CF93C82F0E94FA
:10027000220161E08C2FCF910C949E00611103C08C
:1002800080580C942C018054FCCF0E94220190E0F5
:10029000089581E00C942C0182E00C942C01CF9302
:1002A000C82F0E942201CA3069F491E0803408F01E
:1002B00090E0892F8295880F880F807C8058CF919D
:1002C0000C942C0161E08C2FCF910C949E00CF9365
:1002D000DF93EC018991811103C0DF91CF910895E3
:1002E0000E944F01CE01F5CFCF93DF93EC01FE01C9
:1002F00084912196811103C0DF91CF9108950E94CE
:100300004F01F5CFCF93C82FE1E0F1E08081806409
:100310008083249A259A6D9A9D9A6B9A8081886031
:1003200080838FEF99EF0197F1F700C00000A59A45
:10033000759A0E9497008FE19EE40197F1F700C043
:1003400000000E9497008FEF90E00197F1F700C046
:1003500000000E9497008FEF90E00197F1F700C036
:10036000000075980E9497008FEF90E00197F1F7D9
:1003700000C0000088E20E942C0188E00E942C014D
:100380000E94490186E00E942C018C2FCF910C9491
:100390002C01CDB7DEB76C970FB6F894DEBF0FBE59
:1003A000CDBF44B181E090E09C0100900A0202C000
:1003B000220F331F0A94E2F7BC010090080202C02A
:1003C000660F771F0A94E2F7262B242B24B94DB130
:1003D0009C010090060202C0220F331F0A94E2F72C
:1003E000BC010090020202C0660F771F0A94E2F778
:1003F000262B242B2DB923B3AC010090040202C09C
:10040000440F551F0A94E2F7242B23BB40910101AE
:100410009C0100900C0202C0220F331F0A94E2F7E5
:100420000090000202C0880F991F0A94E2F7282B5F
:10043000242B209301018CE00E9482018CE0ECE2ED
:10044000F2E0DE01519601900D928A95E1F7CE011E
:1004500041960E948D007C0180E192E00E9467013C
:100460002FEF8DE399E4215080409040E1F700C0E8
:1004700000000E94490100E010E0E1E1F0E0EC0F33
:10048000FD1FEE0EFF1E60E080E00E943E01CE01E7
:1004900041966C01CE14DF04F1F50E9449010E94DF
:1004A00049010430110509F445C00F5F1F4F4AE0B0
:1004B000BE016F5F7F4F8AED91E60E949D0260E072
:1004C000802F0E943E018DE192E00E946701CE01E3
:1004D00001960E9467014AE0BE016F5F7F4F88EE80
:1004E0009FEF0E949D0261E0802F0E943E0184E206
:1004F00092E00E946701CE0101960E9467019FEF82
:10050000E7EAF1E69150E040F040E1F700C000007A
:100510000E944901B8CFF60181916F010E944F01FD
:10052000FFEF23EC89E0F15020408040E1F700C06C
:100530000000B0CF00E010E0BACFBB274A3031F462
:10054000992322F4BDE2909581959F4F0C94A902C6
:10055000BB27FB015527AA27880F991FAA1FA4179D
:1005600010F0A41B83955051B9F7A05DAA3308F091
:10057000A95DA193009779F7B111B1931192CB01C5
:100580000C94C202DC01FC01672F71917723E1F723
:10059000329704C07C916D9370836291AE17BF0750
:0805A000C8F30895F894FFCFA1
:1005A800030003000500050005000400060005001F
:1005B80048656C6C6F205468657265210031365F40
:1005C800496E3A00385F4F7665723A002D5F2D5FAD
:0805D8002D2A2D5F2D5F2D007F
:00000001FF
